:030000000203F404
:0C03F400787FE4F6D8FD75812502043BFB
:10064200101430313233343536373839414243446D
:0206520045461B
:10050900D3E50D9509E50C95084012D3E50D950B3A
:10051900E50C950A4007D296D295C29722D3E50BEE
:10052900950DE50A950C4012D3E50B9509E50A9559
:10053900084007D297D295C29622D3E509950DE5D1
:1005490008950C4011D3E509950BE508950A400675
:07055900D297D296C2952251
:100003007589511205601204801205091202E17B01
:1000130052E4FDFF1205BAAE0CAF0D7C007D6412F5
:100023000191EF2430FB7D01E4FF1205BAAE0CAF62
:100033000D7C007D0A1201917C007D0A120191ED75
:100043002430FB7D02E4FF1205BAAE0CAF0D7C0039
:100053007D0A120191ED2430FB7D03E4FF1205BA02
:100063007B477D05E4FF1205BAAE0AAF0B7C007D2A
:1000730064120191EF2430FB7D06E4FF1205BAAE52
:100083000AAF0B7C007D0A1201917C007D0A1201EC
:1000930091ED2430FB7D07E4FF1205BAAE0AAF0BE6
:1000A3007C007D0A120191ED2430FB7D08E4FF12F0
:1000B30005BA7B427D0AE4FF1205BAAE08AF097C9C
:1000C300007D64120191EF2430FB7D0BE4FF1205E8
:1000D300BAAE08AF097C007D0A1201917C007D0A4B
:1000E300120191ED2430FB7D0CE4FF1205BAAE083A
:1000F300AF097C007D0A120191ED2430FB7D0DE4F4
:10010300FF1205BAE50CC4F854F0C8E50D7D0112E1
:1001130005AFE50D540F2414F8E6FB7D027F0112B1
:1001230005BA7B487D037F011205BAE50AC4F8547A
:10013300F0C8E50B7D061205AFE50D540F2414F846
:10014300E6FB7D077F011205BA7B487D087F01121C
:1001530005BAE508C4F854F0C8E509C4540F4824A7
:1001630014F8E6FB7D0B7F011205BAE509540F2451
:1001730014F8E6FB7D0C7F011205BA7B487D0D7FE9
:0E018300011205BA7F327E001205DE02000C6A
:1002E100758CD8758AF0E4F58DF58BC290C291C2F8
:1002F10092D28CD28E308DFDC28DC28CC28EAF8DCA
:10030100EFFEAD8B7C00E42DFFEC3EFE7DFF120283
:10031100B4C006C007AE12AF13AB07AA06E4F9F8E2
:10032100D007D0061202228E0C8F0DD3E50D94FF5B
:10033100E50C94004006750C00750DFF758CD875A1
:100341008AF0E4F58DF58BC290D291D28CD28E30A9
:100351008DFDC28DC28CC28EAF8DEFFEAD8B7C0048
:10036100E42DFFEC3EFE7DFF1202B4C006C007AED5
:100371000EAF0FAB07AA06E4F9F8D007D0061202B8
:10038100228E088F09D3E50994FFE5089400400601
:100391007508007509FF758CD8758AF0E4F58DF53F
:1003A1008BD290D291D28CD28E308DFDC28DC28CE7
:1003B100C28ED292AF8DEFFEAD8B7C00E42DFFECAF
:1003C1003EFE7DFF1202B4C006C007AE10AF11ABF6
:1003D10007AA06E4F9F8D007D0061202228E0A8F86
:1003E1000BD3E50B94FFE50A94004006750A0075EE
:0303F1000BFF22DD
:10048000758CD8758AF0E4F58DF58BC290C291C257
:1004900092D28CD28E308DFDC28DC28CC28EAF8D29
:1004A000EFFEAD8B7C00E42DF513EC3EF512758C60
:1004B000D8758AF0E4F58DF58BC290D291D28CD2AA
:1004C0008E308DFDC28DC28CC28EAF8DEFFEAD8B96
:1004D0007C00E42DF50FEC3EF50E758CD8758AF096
:1004E000E4F58DF58BD290D291D28CD28E308DFDE9
:1004F000C28DC28CC28ED292AF8DEFFEAD8B7C00CE
:09050000E42DF511EC3EF510228A
:10056000E4F580FDFC7F381206031205DAE4FDFC99
:100570007F381206031205DAE4FDFC7F3812060309
:100580001205DA7F381205FF7F081205FF7D017C16
:10059000007F011206037D017C007F061206037DA9
:0F05A000017C007F0C1206037F647E000205DEE3
:10062F008F2512061A852580D2A0C2A1C2A2C2A20E
:03063F00D2A22222
:0405FF007D017C00FE
:100603008F25ED4C600312061A852580C2A0C2A176
:07061300C2A2C2A2D2A22282
:10061A007580FFC2A0D2A1C2A2C2A2D2A2E5802046
:05062A00E7FBAF802298
:0B05AF00C4540F482414F8E6FB7F0141
:1005BA008B24AE0553070153060FEF600343064031
:1005CA00430680AF06E4FDFC120603AF2402062FA1
:0405DA007F057E001B
:1005DE00E4FDFCC3ED9FEC9E50167BFA7A00EB1BFC
:1005EE008A8370011A458370F50DBD00010C80E3FE
:0105FE0022DA
:10040000020003E493A3F8E493A34003F68001F20F
:1004100008DFF48029E493A3F85407240CC8C333FD
:10042000C4540F4420C8834004F456800146F6DFCC
:10043000E4800B0102040810204080900642E47E14
:10044000019360BCA3FF543F30E509541FFEE493C1
:10045000A360010ECF54C025E060A840B8E493A388
:10046000FAE493A3F8E493A3C8C582C8CAC583CAB3
:10047000F0A3C8C582C8CAC583CADFE9DEE780BE6B
:0106540000A5
:10019100BC000BBE0029EF8DF084FFADF022E4CC52
:1001A100F875F008EF2FFFEE33FEEC33FCEE9DEC1B
:1001B100984005FCEE9DFE0FD5F0E9E4CEFD22ED61
:1001C100F8F5F0EE8420D21CFEADF075F008EF2FAB
:1001D100FFED33FD4007985006D5F0F222C398FD9C
:0501E1000FD5F0EA2239
:1001E60075F008758200EF2FFFEE33FECD33CDCCD0
:1001F60033CCC58233C5829BED9AEC99E582984053
:100206000CF582EE9BFEED9AFDEC99FC0FD5F0D62F
:10021600E4CEFBE4CDFAE4CCF9A88222B800C1B959
:100226000059BA002DEC8BF084CFCECDFCE5F0CB97
:10023600F97818EF2FFFEE33FEED33FDEC33FCEBD0
:1002460033FB10D703994004EB99FB0FD8E5E4F98B
:10025600FA227818EF2FFFEE33FEED33FDEC33FC78
:10026600C933C910D7059BE99A4007EC9BFCE99A6C
:10027600F90FD8E0E4C9FAE4CCFB2275F010EF2FB1
:10028600FFEE33FEED33FDCC33CCC833C810D707B1
:100296009BEC9AE899400AED9BFDEC9AFCE899F8EC
:0E02A6000FD5F0DAE4CDFBE4CCFAE4C8F9227F
:1002B400EC8EF0A4CCC5F0CCCDF8EFA4CEC5F02DD7
:1002C400FDE43CFCE8A42EC8C5F03DFDE43CFCEF95
:0D02D400A4FFE5F028FEE43DFDE43CFC2223
:00000001FF
