:10059800526563656976696E672046726F6D2038AB
:1005A8003035312E2E2E0D0A002D2D2D2D2D2D2DD1
:1005B8002D2D2D2D2D2D2D2D2D2D2D2D2D2D2D2D63
:1005C8002D2D2D2D2D2D2D0D0A0052656365697673
:0505D80065640D0A003E
:1002E500606000A005620969056209700562097709
:1002F500056209880562098F05620996056209A7E5
:10030500056209AE056209B5056209C5056209CC34
:10031500056209D3056209DA056209EB056209F28E
:10032500056209F905620A0A05620A1105620A18D9
:1003350005620A2805620A2F05620A3605620A4720
:1003450005620A4E41009F0141007D01580065008C
:100355000000000000000000000000000000000098
:10036500000000000000004101010141009E01580C
:1003750000840101010101010101010101010101E6
:100385000101010101010101010146007E0000009A
:1003950000000041010A004101000042009C0000EC
:10065200C2A17E08EEC3940174809480400FC2A2AE
:0D066200EF3392A0EF25E0FFD2A21E80E74B
:01066F002268
:0D000E00C2A1120652AF05120652D2A12265
:10061000E4FD7F0912000E7D037F0A12000E7D07A4
:100620007F0B12000E7D017F0C12000E1D7F0F024A
:02063000000EBA
:10063200E4FDFCC3ED9FEC9E5015E4FBFA0BBB00FE
:0F064200010AEB64704A70F50DBD00010C80E4F5
:010651002286
:10067000EF1FAA0670011E4A600FE4FDEDC39478D7
:090680007480948050EA0D80F3AF
:01068900224E
:080003008F993099FDC299228A
:1005DD0090010FEBF0A3EAF0A3E9F090010FE0FB1F
:1005ED00A3E0FAA3E0F9120432FF601612000390A3
:1005FD000110E475F0011204A07F057E0012067053
:03060D0080D9226F
:10052D00C200E4900102F0A3F0D2AFD2A9758911F7
:10053D00758CFE758A0CD28CD2AF7598507589204A
:10054D00F587758DFD758BFDD2AFD2A8D288D2AC53
:10055D0075B801D28E7FC8FE1206707BFF7A0579C1
:10056D00981205DD7BFF7A0579B11205DD7F327EAC
:10057D0000120670D2AF1206107BFF7A0579D212E7
:0B058D0005DD7FC87E0012067080EEC6
:030023000204B61E
:1004B600C0E0C0F0C083C082C0D075D000C000C00C
:0704C60004C005C006C007D9
:1004CD00309848C2ACC298AF99EFC39430403AEF20
:1004DD00D394395034EF24D0FF90010AE0FE24006C
:1004ED00F582E43400F583EFF074012EF582E434E7
:1004FD0000F58374FFF0EE2401FFE433FE7C007DF4
:0B050D006412044B90010AEDF0D2AC28
:10051800D007D006D005D004D000D0D0D082D08368
:05052800D0F0D0E0322C
:03000B00020026CA
:10002600C0E0C083C082C0D075D000C000C004C08C
:1000360005C006C007758CFE758A0C90009DE0040D
:10004600F0700690009CE004F0C390009DE09432AE
:1000560090009CE06480948050030201E5E4F0A3E4
:10006600F0900106F0A3F0900104E4F0A3F09001F3
:1000760004E0FCA3E0FDC39404EC940040030201F9
:100086004CA3E0FEA3E07802C333CE33CED8F924E6
:1000960084F58274003EF583E5822DF582E5833C86
:1000A600F583E07034900106E0FEA3E07802C333E6
:1000B600CE33CED8F92465F58274003EF583C0832D
:1000C600C082900104E0FEA3E0D082D0832582F5B1
:1000D60082E5833EF5837401F0900106E0FEA3E01D
:1000E600FF247EF58274003EF583C083C082E0FD66
:1000F600EF7802C333CE33CED8F92465F582740087
:100106003EF583C083C082900104E0FEA3E0FFD0E9
:1001160082D0832582F582E5833EF583E0FCC374B5
:10012600079FFFF8EC088002C333D8FC4DD082D07D
:1001360083F0900105E004F060030200749001046E
:10014600E004F0020074900107E004F070069001EC
:1001560006E004F0900106E07004A3E06406600384
:1001660002006D900104E4F0A3F0900104E0FCA30A
:10017600E0FD04FF747E2DF58274003CF583E0FDFE
:1001860012000E900105E004F07006900104E004F0
:10019600F0C3900105E09406900104E0940040CA83
:1001A600E4FD7F0712000E7F0812000E900104E4A2
:1001B600F0A3F0900104E0FEA3E0FFC39406EE94E2
:1001C60000501C747E2FF58274003EF583E4F09097
:1001D6000105E004F070DC900104E004F080D4D066
:1001E60007D006D005D004D000D0D0D082D083D09E
:0201F600E032F5
:03001B000201F8E7
:1001F800C0E0C083C082C0D075D000C006C00775FB
:100208008DFE758B0C900101E004F0E0FF7E00C3C9
:1002180094017480948050057404F08015D3EF9491
:1002280004EE6480948090010140057401F080021E
:10023800E0F0900101E024FE601014601714601EC5
:1002480024037022C294D2958004D294C295D29687
:10025800D2978012D294D295C296D2978008D2941F
:10026800D295D296C297A280E433FF900101E0FEB6
:100278002483F582E43400F583EFF0A281E433FFB0
:1002880074872EF582E43400F583EFF0A282E4331C
:10029800FF748B2EF582E43400F583EFF0A283E43B
:1002A80033FF748F2EF582E43400F583EFF0A2B2A9
:1002B800E433FF74932EF582E43400F583EFF0A263
:1002C800B3E433FF74972EF582E43400F583EFF03E
:0D02D800D007D006D0D0D082D083D0E03245
:030000000203A652
:0C03A600787FE4F6D8FD7581400203ED7D
:10043200BB010689828A83E0225002E722BBFE02C8
:09044200E32289828A83E49322FB
:10044B00BC000BBE0029EF8DF084FFADF022E4CC95
:10045B00F875F008EF2FFFEE33FEEC33FCEE9DEC5E
:10046B00984005FCEE9DFE0FD5F0E9E4CEFD22EDA4
:10047B00F8F5F0EE8420D21CFEADF075F008EF2FEE
:10048B00FFED33FD4007985006D5F0F222C398FDDF
:05049B000FD5F0EA227C
:1004A000C5F0F8A3E028F0C5F0F8E58215827002E7
:0604B0001583E038F02284
:1003B20002052DE493A3F8E493A34003F68001F22F
:1003C20008DFF48029E493A3F85407240CC8C3334C
:1003D200C4540F4420C8834004F456800146F6DF1B
:1003E200E4800B01020408102040809002E5E47EC4
:1003F200019360BCA3FF543F30E509541FFEE49310
:10040200A360010ECF54C025E060A840B8E493A3D6
:10041200FAE493A3F8E493A3C8C582C8CAC583CA01
:10042200F0A3C8C582C8CAC583CADFE9DEE780BEB9
:0103A5000057
:00000001FF
