:030000000200B249
:0C00B200787FE4F6D8FD7581150200F996
:10027700420006271041000500410003004100022B
:010287000076
:1001A1007F32120289C2A9C28C438E80438F01E43F
:1001B100F589758CFF758AD8D28C758DFC758D1873
:1001C100D28EC2ABD2AF7F32120289781076030889
:1001D10076FF780876030876FFE47814F6781276CD
:1001E100030876FF780A76030876FF7815F6900003
:0C01F10004F07F0112028912000380F666
:0F0289007D367C07ED1D70011C144C70F7DFF102
:010298002243
:07029900759DFF75BC80227A
:10024C00E4F5BDF5BEEF44E8F5BC00000000E5BCEC
:10025C00541060FA75BC80AFBDEF75F004A4FFAE0E
:0B026C00F0ADBEED5403FDEF4DFF228E
:10001E00E4FDEDC394027480948040030200B1EDC0
:10002E0025E0240CF8E6FE08E6FFED25E02410F8A6
:10003E00E6FA08E6FBC3EF9BFBEE9AFAC2D530E771
:10004E0009D2D5C3E49BFBE49AFAC3EB9414EA9469
:10005E0000401674142DF8E4F630D538ED25E02462
:10006E0008F8A60608A607802B74142DF806E6C31A
:10007E00941474809480401C74142DF8E4F6ED25CD
:10008E00E02410F8E6FA08E6FBED25E02408F8A6D1
:10009E000208A603ED25E02410F8A60608A6070D13
:0300AE000200202D
:0100B100222C
:02013E00AC070C
:1001400012024CC374FF9FFF74039EFEEC25E02453
:100150000CF8A60608A607EC25E02409F9EC25E032
:10016000240CF8E6FE08E6C397EE199750037F00CB
:1001700022EC25E02409F9EC25E0240DF8C3E697EC
:10018000FF18E61997FEC3EF9428EE940040037F12
:100190000122D3EF9414EE940050037F00227F02DB
:0101A000223C
:1000030030A60720A704C2A4D2AB30A504C2A4D251
:02001300AB221E
:03001B000201FDE2
:1001FD00C0E0C083C082C0D075D000C006C00775F6
:10020D008DFC758B18900001E004F07006900000D5
:10021D00E004F0900006E0FEA3E0FF900000E0B5E2
:10022D000610A3E0B5070B900000E4F0A3F0D2A4F4
:0F023D00C2ABD007D006D0D0D082D083D0E03271
:1000BE000201A1E493A3F8E493A34003F68001F2B6
:1000CE0008DFF48029E493A3F85407240CC8C33343
:1000DE00C4540F4420C8834004F456800146F6DF12
:1000EE00E4800B0102040810204080900277E47E29
:1000FE00019360BCA3FF543F30E509541FFEE49307
:10010E00A360010ECF54C025E060A840B8E493A3CD
:10011E00FAE493A3F8E493A3C8C582C8CAC583CAF8
:10012E00F0A3C8C582C8CAC583CADFE9DEE780BEB0
:010288000075
:00000001FF
