:030000000211E307
:0C11E300787FE4F6D8FD75810702122A1F
:10149B003F065B4F666D7D077F6F777C395E797199
:1011210041004300410044004100450041004600A8
:1011310041004B0041004E0041004F004100500072
:101141004100185A4100530541003EC84100510178
:101151004400390000000044004700000000440042
:10116100560000000044000A0000000042004C004C
:1011710000420008006442001B000F41005200427F
:10118100005E000042000E00004200230000420009
:1011910041000A42003F00004100170041003D00AC
:1011A10041002000420019000042002500004100DA
:1011B100160044002B000000004400120000000053
:1011C1004400270000000044002F000000004400FC
:1011D100350000000044005A0000000042003300C6
:0111E100000D
:1013E500E4FEEEC39408748094805015C291EF30EA
:1013F500E004D2908002C290EFC313FFD2910E8019
:01140500E105
:0114060022C3
:10140700E4FFD290FEEEC39408748094805011EFED
:10141700C313FFC2913090034480FFD2910E80E541
:0114270022A2
:08000E00C2921213E5D2922206
:05126F000490003DF0B9
:10127400E4FDC2927F421213E5E4FCECC3940474CF
:10128400809480501212140774A42CF582E4340064
:10129400F583EFF00C80E4D292E4FCECC394047484
:1012A400809480501A74A42CF582E43400F583E011
:1012B400FFA804088002C333D8FC4DFD0C80DCE495
:1012C400FCECC3940874809480501B7E007401A8C5
:1012D40004088005C333CE33CED8F9FFED6F700117
:0812E400EE60030C80DBAF0497
:0112EC0022DF
:06144800E090149B93FDEF
:10144E00AC077F4412000EC292EC44C0FF1213E5AB
:08145E00AF051213E5D2922242
:02138100AB07B8
:10138300E4FAEAC3940874809480502D7E007401BB
:10139300A802088005C333CE33CED8F9FFEBFDEFA7
:1013A3005D6009EA25E004FF7D018007EA25E0048A
:0913B300FFE4FD12144E0A80C98A
:0113BC00220E
:1013BD007F8B12000E7F4012000EC2927FC012135F
:1013CD00E5E4FDEDC39410748094805008E4FF12A1
:0713DD0013E50D80EED29232
:0113E40022E6
:10001E001214811214ABD2AFC2A9D2AB1213BDE42B
:10002E00900017F0900017E0FFC39408748094803E
:10003E005015EF25E0FF90149BE493FD12144E90A3
:10004E000017E004F080DD02089D900043E090145C
:10005E009B93FDE4FF12144E9000447F021214484D
:10006E009000457F04121448900046E090149B9334
:10007E00FD7F0612144E90004BE090149B93FD7F73
:10008E000812144E90004EE090149B93FD7F0A12BE
:10009E00144E90004FE090149B93FD7F0C12144E63
:1000AE00900050E090149B93FD7F0E12144E900022
:1000BE0051E06401600302033812126F90003DE0BC
:1000CE006F704912127490003DE06F60F690000957
:1000DE00E02464F0900008E03400F0E0FEA3E0FFBE
:1000EE00C3EE9400500C9000087407F0A374D0F087
:1000FE00801AD3EF94D0EE94074009E4900008F0F4
:10010E00A3F08008900008EEF0A3EFF0E412127056
:10011E0090003DE06F704912127490003DE06F60E8
:10012E00F6900009E0249CF0900008E034FFF0E027
:10013E00FEA3E0FFC3EE9400500C9000087407F08D
:10014E00A374D0F0801AD3EF94D0EE94074009E454
:10015E00900008F0A3F08008900008EEF0A3EFF0F6
:10016E00740312127090003DE06F70491212749079
:10017E00003DE06F60F6900009E02432F090000838
:10018E00E03400F0E0FEA3E0FFC3EE9400500C90CC
:10019E0000087407F0A374D0F0801AD3EF94D0EE59
:1001AE0094074009E4900008F0A3F080089000083E
:1001BE00EEF0A3EFF090003D7402F0121274900076
:1001CE003DE06F704912127490003DE06F60F69042
:1001DE000009E024CEF0900008E034FFF0E0FEA32A
:1001EE00E0FFC3EE9400500C9000087407F0A37467
:1001FE00D0F0801AD3EF94D0EE94074009E490002B
:10020E0008F0A3F08008900008EEF0A3EFF0900045
:10021E003D7405F012127490003DE06F7049121299
:10022E007490003DE06F60F6900009E0240AF090B3
:10023E000008E03400F0E0FEA3E0FFC3EE940050AF
:10024E000C9000087407F0A374D0F0801AD3EF94CA
:10025E00D0EE94074009E4900008F0A3F0800890D7
:10026E000008EEF0A3EFF090003D7404F01212744B
:10027E0090003DE06F704912127490003DE06F6087
:10028E00F6900009E024F6F0900008E034FFF0E06C
:10029E00FEA3E0FFC3EE9400500C9000087407F02C
:1002AE00A374D0F0801AD3EF94D0EE94074009E4F3
:1002BE00900008F0A3F08008900008EEF0A3EFF095
:1002CE00900008E0FAA3E0FB7C037DE8FFAE02128B
:1002DE000BD57C007D0A120BD5900043EDF07C000F
:1002EE007D64AF03AE02120BD57C007D0A120BD5D6
:1002FE00A3EDF0900008A3E07C007D0AFFAE021291
:10030E000BD57C007D0A120BD5900045EDF07C00DC
:10031E007D0AAF03AE02120BD5A3EDF0E490004BB5
:10032E00F090004EF0A3F0A304F0900051E06402B0
:10033E00600302045512126F90003DE06F70491277
:10034E00127490003DE06F60F690001CE02405F002
:10035E0090001BE03400F0E0FEA3E0FFC3940AEE31
:10036E009400500B90001BE4F0A37414F08019D38A
:10037E00EF9414EE940090001B4008E4F0A3740A6E
:10038E00F08005EEF0A3EFF0E412127090003DE065
:10039E006F704912127490003DE06F60F690001C71
:1003AE00E024FBF090001BE034FFF0E0FEA3E0FF42
:1003BE00C3940AEE9400500B90001BE4F0A3741447
:1003CE00F08019D3EF9414EE940090001B4008E4D3
:1003DE00F0A3740AF08005EEF0A3EFF090001BE09E
:1003EE00FAA3E0FB7C037DE8FFAE02120BD57C0086
:1003FE007D0A120BD5900043EDF07C007D64AF03B7
:10040E00AE02120BD57C007D0A120BD5A3EDF09037
:10041E00001BA3E07C007D0AFFAE02120BD57C0010
:10042E007D0A120BD5900045EDF07C007D0AAF03DE
:10043E00AE02120BD5A3EDF0E490004BF090004EFF
:10044E00F0A3F0A37402F0900051E0640360030285
:10045E00059A12126F90003DE06F70481212749060
:10046E00003DE06F60F690005FE02405F090005EC6
:10047E00E03400F0E0FEA3E0FFC3EE9400500B90DA
:10048E00005EE4F0A37464F0801AD3EF9464EE94EB
:10049E00004009E490005EF0A3F0800890005EEE4C
:1004AE00F0A3EFF0E412127090003DE06F7048126E
:1004BE00127490003DE06F60F690005FE024FBF058
:1004CE0090005EE034FFF0E0FEA3E0FFC3EE940088
:1004DE00500B90005EE4F0A37464F0801AD3EF9496
:1004EE0064EE94004009E490005EF0A3F080089062
:1004FE00005EEEF0A3EFF090005EE0FAA3E0FB7C6E
:10050E00037DE8FFAE02120BD57C007D0A120BD5DF
:10051E00900043EDF07C007D64AF03AE02120BD56C
:10052E007C007D0A120BD5A3EDF090005EA3E07C5B
:10053E00007D0AFFAE02120BD57C007D0A120BD590
:10054E00900045EDF07C007D0AAF03AE02120BD594
:10055E00A3EDF0E490004BF090004EF0A3F0A374E6
:10056E0003F0E4900021F0A3F0900052F0900023ED
:10057E00F0A3F0900027120DA80000000090005E7E
:10058E00E0FFA3E090000ECFF0A3EFF0900051E05B
:10059E00640460030207A812126F90003DE06F70B2
:1005AE004812127490003DE06F60F690005FE024F8
:1005BE0005F090005EE03400F0E0FEA3E0FFC3EE35
:1005CE009400500B90005EE4F0A37464F0801AD394
:1005DE00EF9464EE94004009E490005EF0A3F08086
:1005EE000890005EEEF0A3EFF0E412127090003D62
:1005FE00E06F704812127490003DE06F60F690004C
:10060E005FE024FBF090005EE034FFF0E0FEA3E03C
:10061E00FFC3EE9400500B90005EE4F0A37464F000
:10062E00801AD3EF9464EE94004009E490005EF0DB
:10063E00A3F0800890005EEEF0A3EFF0900023E0B0
:10064E00FAA3E0FB7C007D0AFFAE02120BD57C0004
:10065E007D0A120BD5900043EDF07C007D0AAF03AE
:10066E00AE02120BD5A3EDF0900052E0FF75F00A2A
:10067E008475F00A84900045E5F0F0EF75F00A8479
:10068E00A3E5F0F0E47BE87A03F9F8900056E0FC7D
:10069E00A3E0FDA3E0FEA3E0FF120CEBE47B0AFA5D
:1006AE00F9F8120CEB90004BEBF0E47B64FAF9F8DE
:1006BE00900056E0FCA3E0FDA3E0FEA3E0FF120CC9
:1006CE00EBE47B0AFAF9F8120CEB90004EEBF0E437
:1006DE007B0AFAF9F8900056E0FCA3E0FDA3E0FED9
:1006EE00A3E0FF120CEBE47B0AFAF9F8120CEB9084
:1006FE00004FEBF0E47B0AFAF9F8900056E0FCA309
:10070E00E0FDA3E0FEA3E0FF120CEB900050EBF037
:10071E00900056E0FCA3E0FDA3E0FEA3E02401FF61
:10072E00E43EFEE43DFDE43CFC900056120D9C9030
:10073E000027E0F8A3E0F9A3E0FAA3E0FBE47F3C96
:10074E00FEFDFC120CEBE47B3CFAF9F8120C60C0D7
:10075E0006C00790001BE0FEA3E0FBAA06E4F9F832
:10076E00D007D006120CEB900023EEF0A3EFF09022
:10077E000052E0C39464748094804002800FD39042
:10078E000024E09405900023E0940050089000208F
:10079E007401F08005E4900020F090003D7407F0A5
:1007AE0012127490003DE06F703712127490003D7B
:1007BE00E06F60F6900051E004F0E0FF7E00C3941D
:1007CE00017480948050057404F08015D3EF940466
:1007DE00EE6480948090005140057401F08002E038
:1007EE00F090003D7406F012127490003DE06F70B0
:1007FE003712127490003DE06F60F6900051E014D5
:10080E00F0E0FF7E00C39401748094805005740460
:10081E00F08015D3EF9404EE6480948090005140E4
:10082E00057401F08002E0F0900020E0146068048E
:10083E006003020058900054E0FAA3E0FBC390005E
:10084E0009E09BFE900008E09A90003FF0A3CEF0E6
:10085E007C007D64AF03AE02120BC3900008E0FC77
:10086E00A3E0FD120BD5900052EFF0900023E0FEB6
:10087E00A3E0FF90005EE0FCA3E0FD121466900082
:10088E000EE0FFA3E090005ECFF0A3EFF0D280E485
:10089E00FF121381020058C2807FFF121381E49071
:1008AE00005EF0A3F0900023E0FEA3E0FFE4FDFC69
:0608BE001214660200584E
:03000B000212EDF1
:1012ED00C0E0C0F0C083C082C0D075D000C000C0C7
:1012FD0004C005C006C007758CFC758A1890005691
:10130D00E0FCA3E0FDA3E0FEA3E02401FFE43EFE2C
:10131D00E43DFDE43CFC900056120D9CD007D00638
:10132D00D005D004D000D0D0D082D083D0F0D0E082
:01133D00327D
:03001B0002133E8F
:10133E00C0E0C083C082C0D075D000C007758DFFDD
:10134E00758B9C90003EE004F0E0C394C8748094CA
:10135E00804002E4F0900053E0FF90003EE0D39F07
:10136E004004C2A78002D2A7D007D0D0D082D083AB
:03137E00D0E0328A
:03000300021025C3
:10102500C0E0C0F0C083C082C0D075D000C000C091
:1010350001C002C003C004C005C006C00790004738
:10104500E0FCA3E0FDA3E0FEA3E02401FFE43EFEF7
:10105500E43DFDE43CFC900047120D9CE47F03FE5B
:10106500FDFC900047E0F8A3E0F9A3E0FAA3E0FB5C
:10107500C3120D8B500302110690002BE0FCA3E078
:10108500FDA3E0FEA3E0FF900012120D9C90005618
:10109500E0FCA3E0FDA3E0FEA3E0FF90002B120D12
:1010A5009C900012E0F8A3E0F9A3E0FAA3E0FB901E
:1010B500002BE0FCA3E0FDA3E0FEA3E0C39BFFEE55
:1010C5009AFEED99FDEC98FC900027120D9C90007E
:1010D50047120DA800000000900022E004F0700601
:1010E500900021E004F090001BE0FCA3E0FD9000DF
:1010F50021E0FEA3E0FF120BD5900054EEF0A3EF24
:10110500F0D007D006D005D004D003D002D001D04E
:0C11150000D0D0D082D083D0F0D0E032E7
:060DD900900060120D9C69
:100DDF00900074120DA842C80000900078120DA860
:100DEF0042C80000900090E0FCA3E0FDA3E0FEA34A
:100DFF00E0FFA3120D9C90008CE0FCA3E0FDA3E0AC
:100E0F00FEA3E0FFA3120D9C900060E0F8A3E0F9B1
:100E1F00A3E0FAA3E0FBA3E0FCA3E0FDA3E0FEA3A5
:100E2F00E0C39BFFEE9AFEED99FDEC98FC120B3B95
:100E3F0090008C120D9C90008CE0FCA3E0FDA3E0D1
:100E4F00FEA3E0FF900068E0F8A3E0F9A3E0FAA3A7
:100E5F00E0FB1209BC900080120D9C900084E0F81A
:100E6F00A3E0F9A3E0FAA3E0FBC000C001C002C0F9
:100E7F000390008CE0FCA3E0FDA3E0FEA3E0FF9055
:100E8F00006CE0F8A3E0F9A3E0FAA3E0FB1209BCC1
:100E9F00D003D002D001D0001208CB900084120DE5
:100EAF009C90009CE0FCA3E0FDA3E0FEA3E0FFA369
:100EBF00120D9C900098E0FCA3E0FDA3E0FEA3E0E0
:100ECF00FFA3120D9C900090E0F8A3E0F9A3E0FAC5
:100EDF00A3E0FB90008CE0FCA3E0FDA3E0FEA3E009
:100EEF00FF1208C7900098120D9C900098E0FCA389
:100EFF00E0FDA3E0FEA3E0FF900070E0F8A3E0F9AF
:100F0F00A3E0FAA3E0FB1209BC900088120D9CE449
:100F1F00FFFE7D807C3F900084E0F8A3E0F9A3E022
:100F2F00FAA3E0FB120AC2500C900084120DA83FE6
:100F3F00800000803C900078E0FCA3E0FDA3E0FE81
:100F4F00A3E0FF900084E0F8A3E0F9A3E0FAA3E0A8
:100F5F00FB120AC26007400590007880039000845E
:100F6F00E0FCA3E0FDA3E0FEA3E0FF900084120DE0
:100F7F009C900084E0FCA3E0FDA3E0FEA3E0FF90C3
:100F8F000080E0F8A3E0F9A3E0FAA3E0FB1208CB9E
:100F9F00900088E0F8A3E0F9A3E0FAA3E0FB1208C1
:100FAF00CB90007C120D9CE4FFFEFDFC90007CE0DA
:100FBF00F8A3E0F9A3E0FAA3E0FB120AC2500C90E9
:100FCF00007C120DA800000000803C900074E0FC33
:100FDF00A3E0FDA3E0FEA3E0FF90007CE0F8A3E018
:100FEF00F9A3E0FAA3E0FB120AC2600740059000E4
:100FFF0074800390007CE0FCA3E0FDA3E0FEA3E07F
:10100F00FF90007C120D9C90007CE0FCA3E0FDA300
:05101F00E0FEA3E0FF6C
:0110240022A9
:101466009000A4EEF0A3EFF0AE04AF057C007D0A79
:0B147600120C2AEF2405900053F02216
:0714AB00D288D2A8D2AF22C3
:10148100D2AFD2A9D2AB758911758CFC758A18754A
:0A1491008DFF758D9CD28CD28E2247
:10142800D3EF9400EE6480948040147D7D7C00EDC1
:0F1438001D70011CED4C70F7EF1F70E41E80E17A
:011447002282
:1008C400020BAEE86480F8E933E83360110460F0A9
:1008D400ED33EC337009E8FCE9FDEAFEEBFF22049A
:1008E40060DED3EB9FEA9EE99DE8C2E78CF0C2F795
:1008F40095F0400CE8CCF8E9CDF9EACEFAEBCFFB61
:10090400120B7985D0F05804700320D5B3E8047035
:10091400075002B2D5020BB892D5EC0460F7E4CCD0
:10092400C0E0C398F8603B94186008400DD0E0FB29
:10093400020B90E4FBFAC9FC8028E830E406E4C921
:10094400FBE4CAFCE830E305E4C9CACBFCE854077D
:100954006010F8C3E913F9EA13FAEB13FBEC13FC88
:10096400D8F130F52FC3E49CFCEF9BFFEE9AFEED2B
:1009740099FDD0E0FBEF4E4D4C701222DB03020BCD
:10098400B5EC2CFCEF33FFEE33FEED33FDED30E739
:10099400EB020B90EF2BFFEE3AFEED39FDD0E0FBBE
:1009A40050130BBB0003020BB8ED13FDEE13FEEF67
:0809B40013FFEC13FC020B9091
:1009BC00EC4D6011E8497017ED33EC3304600DE435
:1009CC00FCFFFEFD22E933E8330470F8020BAE1293
:1009DC000B7958046009E4CC248150062850090294
:1009EC000BB8284003020BB5C0E0EB4A7044B98049
:1009FC0006D0E0FB020BA4EF4E701CBD8008EBFF91
:100A0C00EAFEE9FD80EBE98DF0A4FEE5F0020AA513
:100A1C00E9CDF9EAFEEBFFEF89F0A4FCE5F0CE8915
:100A2C00F0A42EFFE435F0CD89F0A42DFEE435F0D2
:100A3C008067EF4E7005BD80D780C3EF8BF0A4AC00
:100A4C00F0EE8BF0A42CFCE435F0F8EF8AF0A42C3B
:100A5C00E5F038FCE433CB8DF0A42CFCE5F03BF84E
:100A6C00EE8AF0A42CFCE5F038F8E433CF89F0A43E
:100A7C002CFCE5F038CF3400CE89F0A42FFFE5F044
:100A8C003EFEE433C98DF0A42EFEE5F039CD8AF09C
:100A9C00A42FFFE5F03EFEE43DFD33D0E0FB500714
:100AAC000BBB000F020BB8EC2CFCEF33FFEE33FE4C
:060ABC00ED33FD020B907A
:100AC20074F8CC6480CCC86480C8F58204604FC3DB
:100AD200EB9FF5F0EA9E42F0E99D42F0E89C45F07A
:100AE200603C501DE5825FFFE582D313CB5BCBF404
:100AF2002B5582FB50280ABA002409B9002008802D
:100B02001DE5825BFBE582D313CF5FCFF4C3132FC6
:100B12005582FF50090EBE00050DBD00010CC3EB4E
:100B22009FF5F0EA9E42F0E99D42F0E89C45F060B4
:090B320007CC4820E701B3EC22D6
:100B3B0075F020800E75F010800575F0087D007E35
:100B4B00007F003392D530D503120D7DEC3340106E
:100B5B00EF33FFEE33FEED33FDEC33FCD5F0ED223E
:0E0B6B00E5F0247EA2D513CC92E7CDCEFF227A
:100B7900E9D2E7C933E833F892D5EDD2E7CD33ECC2
:070B890033FC5002B2D5223B
:100B9000EC30E7100FBF000C0EBE00080DBD0004C6
:100BA0000BEB6014A2D5EB13FCED92E7FD2274FF72
:100BB000FCFDFEFF22E480F8A2D574FF13FC7D80CB
:030BC000E480EFDF
:1011EF0002001EE493A3F8E493A34003F68001F2F8
:1011FF0008DFF48029E493A3F85407240CC8C33301
:10120F00C4540F4420C8834004F456800146F6DFCF
:10121F00E4800B0102040810204080901121E47E2D
:10122F00019360BCA3FF543F30E509541FFEE493C4
:10123F00A360010ECF54C025E060A840B8E493A38B
:10124F00FAE493A3F8E493A3C8C582C8CAC583CAB6
:10125F00F0A3C8C582C8CAC583CADFE9DEE780BE6E
:0111E200000C
:100BC300EF8DF0A4A8F0CF8CF0A428CE8DF0A42E46
:020BD300FE2200
:100BD500BC000BBE0029EF8DF084FFADF022E4CC04
:100BE500F875F008EF2FFFEE33FEEC33FCEE9DECCD
:100BF500984005FCEE9DFE0FD5F0E9E4CEFD22ED13
:100C0500F8F5F0EE8420D21CFEADF075F008EF2F5C
:100C1500FFED33FD4007985006D5F0F222C398FD4D
:050C25000FD5F0EA22EA
:100C2A00C2D5EC30E709B2D5E4C39DFDE49CFCEEE5
:100C3A0030E715B2D5E4C39FFFE49EFE120BD5C37D
:100C4A00E49DFDE49CFC8003120BD530D507C3E478
:060C5A009FFFE49EFE2254
:100C6000E88FF0A4CC8BF0A42CFCE98EF0A42CFC33
:100C70008AF0EDA42CFCEA8EF0A4CDA8F08BF0A4B1
:100C80002DCC3825F0FDE98FF0A42CCD35F0FCEB10
:100C90008EF0A4FEA9F0EB8FF0A4CFC5F02ECD39D5
:0F0CA000FEE43CFCEAA42DCE35F0FDE43CFC2242
:100CAF0075F008758200EF2FFFEE33FECD33CDCCFC
:100CBF0033CCC58233C5829BED9AEC99E58298407F
:100CCF000CF582EE9BFEED9AFDEC99FC0FD5F0D65C
:100CDF00E4CEFBE4CDFAE4CCF9A88222B800C1B986
:100CEF000059BA002DEC8BF084CFCECDFCE5F0CBC4
:100CFF00F97818EF2FFFEE33FEED33FDEC33FCEBFD
:100D0F0033FB10D703994004EB99FB0FD8E5E4F9B7
:100D1F00FA227818EF2FFFEE33FEED33FDEC33FCA4
:100D2F00C933C910D7059BE99A4007EC9BFCE99A98
:100D3F00F90FD8E0E4C9FAE4CCFB2275F010EF2FDD
:100D4F00FFEE33FEED33FDCC33CCC833C810D707DD
:100D5F009BEC9AE899400AED9BFDEC9AFCE899F818
:0E0D6F000FD5F0DAE4CDFBE4CCFAE4C8F922AB
:0E0D7D00C3E49FFFE49EFEE49DFDE49CFC2287
:100D8B00EB9FF5F0EA9E42F0E99D42F0E89C45F0BE
:010D9B002235
:0C0D9C00ECF0A3EDF0A3EEF0A3EFF022CA
:100DA800A8828583F0D083D082120DBF120DBF12A6
:100DB8000DBF120DBFE473E493A3C583C5F0C583CB
:100DC800C8C582C8F0A3C583C5F0C583C8C582C895
:010DD80022F8
:00000001FF
